{
  "contractName": "FarmerRole",
  "abi": [
    {
      "inputs": [],
      "payable": false,
      "stateMutability": "nonpayable",
      "type": "constructor"
    },
    {
      "anonymous": false,
      "inputs": [
        {
          "indexed": true,
          "internalType": "address",
          "name": "account",
          "type": "address"
        }
      ],
      "name": "FarmerAdded",
      "type": "event"
    },
    {
      "anonymous": false,
      "inputs": [
        {
          "indexed": true,
          "internalType": "address",
          "name": "account",
          "type": "address"
        }
      ],
      "name": "FarmerRemoved",
      "type": "event"
    },
    {
      "constant": true,
      "inputs": [
        {
          "internalType": "address",
          "name": "account",
          "type": "address"
        }
      ],
      "name": "isFarmer",
      "outputs": [
        {
          "internalType": "bool",
          "name": "",
          "type": "bool"
        }
      ],
      "payable": false,
      "stateMutability": "view",
      "type": "function"
    },
    {
      "constant": false,
      "inputs": [
        {
          "internalType": "address",
          "name": "account",
          "type": "address"
        }
      ],
      "name": "addFarmer",
      "outputs": [],
      "payable": false,
      "stateMutability": "nonpayable",
      "type": "function"
    },
    {
      "constant": false,
      "inputs": [],
      "name": "renounceFarmer",
      "outputs": [],
      "payable": false,
      "stateMutability": "nonpayable",
      "type": "function"
    }
  ],
  "bytecode": "0x608060405234801561001057600080fd5b506100203361002560201b60201c565b6101c7565b61003d81600061008360201b6102c81790919060201c565b8073ffffffffffffffffffffffffffffffffffffffff167f2e0ded4123377a3c2bc9a26f1717655a129e2f20752924d42e730ec89c83dbd060405160405180910390a250565b600073ffffffffffffffffffffffffffffffffffffffff168173ffffffffffffffffffffffffffffffffffffffff1614156100bd57600080fd5b6100cd828261013560201b60201c565b156100d757600080fd5b60018260000160008373ffffffffffffffffffffffffffffffffffffffff1673ffffffffffffffffffffffffffffffffffffffff16815260200190815260200160002060006101000a81548160ff0219169083151502179055505050565b60008073ffffffffffffffffffffffffffffffffffffffff168273ffffffffffffffffffffffffffffffffffffffff16141561017057600080fd5b8260000160008373ffffffffffffffffffffffffffffffffffffffff1673ffffffffffffffffffffffffffffffffffffffff16815260200190815260200160002060009054906101000a900460ff16905092915050565b610482806101d66000396000f3fe608060405234801561001057600080fd5b50600436106100415760003560e01c806380c3f96d1461004657806380fc0ce41461008a578063b942906914610094575b600080fd5b6100886004803603602081101561005c57600080fd5b81019080803573ffffffffffffffffffffffffffffffffffffffff1690602001909291905050506100f0565b005b61009261015a565b005b6100d6600480360360208110156100aa57600080fd5b81019080803573ffffffffffffffffffffffffffffffffffffffff169060200190929190505050610165565b604051808215151515815260200191505060405180910390f35b6100f933610165565b61014e576040517f08c379a000000000000000000000000000000000000000000000000000000000815260040180806020018281038252602e815260200180610420602e913960400191505060405180910390fd5b61015781610182565b50565b610163336101dc565b565b600061017b82600061023690919063ffffffff16565b9050919050565b6101968160006102c890919063ffffffff16565b8073ffffffffffffffffffffffffffffffffffffffff167f2e0ded4123377a3c2bc9a26f1717655a129e2f20752924d42e730ec89c83dbd060405160405180910390a250565b6101f081600061037490919063ffffffff16565b8073ffffffffffffffffffffffffffffffffffffffff167fa5e0f060af304ab17dd418c7927e3da3ae7868189bf387aee09ab179ccc572f260405160405180910390a250565b60008073ffffffffffffffffffffffffffffffffffffffff168273ffffffffffffffffffffffffffffffffffffffff16141561027157600080fd5b8260000160008373ffffffffffffffffffffffffffffffffffffffff1673ffffffffffffffffffffffffffffffffffffffff16815260200190815260200160002060009054906101000a900460ff16905092915050565b600073ffffffffffffffffffffffffffffffffffffffff168173ffffffffffffffffffffffffffffffffffffffff16141561030257600080fd5b61030c8282610236565b1561031657600080fd5b60018260000160008373ffffffffffffffffffffffffffffffffffffffff1673ffffffffffffffffffffffffffffffffffffffff16815260200190815260200160002060006101000a81548160ff0219169083151502179055505050565b600073ffffffffffffffffffffffffffffffffffffffff168173ffffffffffffffffffffffffffffffffffffffff1614156103ae57600080fd5b6103b88282610236565b6103c157600080fd5b60008260000160008373ffffffffffffffffffffffffffffffffffffffff1673ffffffffffffffffffffffffffffffffffffffff16815260200190815260200160002060006101000a81548160ff021916908315150217905550505056fe596f75206d7573742062652061206661726d657220746f20706572666f726d2074686973206f7065726174696f6ea265627a7a72315820a321f6294455882a9865c039505240f9092456abcaeb5e92965fa2bbbabb306a64736f6c63430005100032",
  "source": "pragma solidity ^0.5.16;\r\n\r\n// Import the library 'Roles'\r\nimport \"./Roles.sol\";\r\n\r\n// Define a contract 'FarmerRole' to manage this role - add, remove, check\r\ncontract FarmerRole {\r\n  using Roles for Roles.Role;\r\n\r\n  // Define 2 events, one for Adding, and other for Removing\r\n  event FarmerAdded(address indexed account);\r\n  event FarmerRemoved(address indexed account);\r\n\r\n  // Define a struct 'farmers' by inheriting from 'Roles' library, struct Role\r\n  Roles.Role private farmers;\r\n\r\n  // In the constructor make the address that deploys this contract the 1st farmer\r\n  constructor() public{\r\n    _addFarmer(msg.sender);\r\n  }\r\n\r\n  // Define a modifier that checks to see if msg.sender has the appropriate role\r\n  modifier onlyFarmer() {\r\n    require(isFarmer(msg.sender), \"You must be a farmer to perform this operation\");\r\n    _;\r\n  }\r\n\r\n  // Define a function 'isFarmer' to check this role\r\n  function isFarmer(address account) public view returns (bool) {\r\n    return farmers.has(account);\r\n  }\r\n\r\n  // Define a function 'addFarmer' that adds this role\r\n  function addFarmer(address account) public onlyFarmer {\r\n    _addFarmer(account);\r\n  }\r\n\r\n  // Define a function 'renounceFarmer' to renounce this role\r\n  function renounceFarmer() public {\r\n    _removeFarmer(msg.sender);\r\n  }\r\n\r\n  // Define an internal function '_addFarmer' to add this role, called by 'addFarmer'\r\n  function _addFarmer(address account) internal {\r\n    farmers.add(account);\r\n    emit FarmerAdded(account);\r\n  }\r\n\r\n  // Define an internal function '_removeFarmer' to remove this role, called by 'removeFarmer'\r\n  function _removeFarmer(address account) internal {\r\n    farmers.remove(account);\r\n    emit FarmerRemoved(account);\r\n  }\r\n}",
  "sourcePath": "C:\\Users\\Limitless\\Desktop\\Ethereum DAPP Supply Chain\\project-6\\contracts\\coffeeaccesscontrol\\FarmerRole.sol",
  "compiler": {
    "name": "solc",
    "version": "0.5.16+commit.9c3226ce.Emscripten.clang"
  },
  "schemaVersion": "3.0.23",
  "updatedAt": "2020-04-15T10:33:08.496Z",
  "networkType": "ethereum",
  "devdoc": {
    "methods": {}
  },
  "userdoc": {
    "methods": {}
  }
}